{
  "contractName": "AuctionContract",
  "abi": [
    {
      "inputs": [
        {
          "internalType": "address payable",
          "name": "_beneficiary",
          "type": "address"
        },
        {
          "internalType": "contract NFTOriginalsContract",
          "name": "_assetContract",
          "type": "address"
        },
        {
          "internalType": "uint256",
          "name": "_biddingTime",
          "type": "uint256"
        },
        {
          "internalType": "uint256",
          "name": "_tokenId",
          "type": "uint256"
        }
      ],
      "stateMutability": "nonpayable",
      "type": "constructor"
    },
    {
      "anonymous": false,
      "inputs": [
        {
          "indexed": false,
          "internalType": "address",
          "name": "winner",
          "type": "address"
        },
        {
          "indexed": false,
          "internalType": "uint256",
          "name": "amount",
          "type": "uint256"
        }
      ],
      "name": "AuctionEnded",
      "type": "event"
    },
    {
      "anonymous": false,
      "inputs": [
        {
          "indexed": false,
          "internalType": "address",
          "name": "bidder",
          "type": "address"
        },
        {
          "indexed": false,
          "internalType": "uint256",
          "name": "amount",
          "type": "uint256"
        }
      ],
      "name": "HighestBidIncreased",
      "type": "event"
    },
    {
      "inputs": [],
      "name": "auctionEndTime",
      "outputs": [
        {
          "internalType": "uint256",
          "name": "",
          "type": "uint256"
        }
      ],
      "stateMutability": "view",
      "type": "function"
    },
    {
      "inputs": [],
      "name": "auctionStartTime",
      "outputs": [
        {
          "internalType": "uint256",
          "name": "",
          "type": "uint256"
        }
      ],
      "stateMutability": "view",
      "type": "function"
    },
    {
      "inputs": [],
      "name": "beneficiary",
      "outputs": [
        {
          "internalType": "address payable",
          "name": "",
          "type": "address"
        }
      ],
      "stateMutability": "view",
      "type": "function"
    },
    {
      "inputs": [],
      "name": "highestBid",
      "outputs": [
        {
          "internalType": "uint256",
          "name": "",
          "type": "uint256"
        }
      ],
      "stateMutability": "view",
      "type": "function"
    },
    {
      "inputs": [],
      "name": "highestBidder",
      "outputs": [
        {
          "internalType": "address",
          "name": "",
          "type": "address"
        }
      ],
      "stateMutability": "view",
      "type": "function"
    },
    {
      "inputs": [],
      "name": "bid",
      "outputs": [],
      "stateMutability": "payable",
      "type": "function"
    },
    {
      "inputs": [],
      "name": "withdraw",
      "outputs": [
        {
          "internalType": "bool",
          "name": "",
          "type": "bool"
        }
      ],
      "stateMutability": "nonpayable",
      "type": "function"
    },
    {
      "inputs": [],
      "name": "auctionend",
      "outputs": [],
      "stateMutability": "nonpayable",
      "type": "function"
    }
  ],
  "bytecode": "0x608060405260006003553480156200001657600080fd5b50604051620013613803806200136183398181016040528101906200003c91906200016f565b336000806101000a81548173ffffffffffffffffffffffffffffffffffffffff021916908373ffffffffffffffffffffffffffffffffffffffff16021790555083600160006101000a81548173ffffffffffffffffffffffffffffffffffffffff021916908373ffffffffffffffffffffffffffffffffffffffff160217905550426004819055508142620000d29190620001e1565b60058190555082600660006101000a81548173ffffffffffffffffffffffffffffffffffffffff021916908373ffffffffffffffffffffffffffffffffffffffff160217905550806007819055505050505062000326565b6000815190506200013b81620002d8565b92915050565b6000815190506200015281620002f2565b92915050565b60008151905062000169816200030c565b92915050565b600080600080608085870312156200018c576200018b620002d3565b5b60006200019c878288016200012a565b9450506020620001af8782880162000141565b9350506040620001c28782880162000158565b9250506060620001d58782880162000158565b91505092959194509250565b6000620001ee826200029a565b9150620001fb836200029a565b9250827fffffffffffffffffffffffffffffffffffffffffffffffffffffffffffffffff03821115620002335762000232620002a4565b5b828201905092915050565b60006200024b826200027a565b9050919050565b60006200025f826200027a565b9050919050565b600062000273826200023e565b9050919050565b600073ffffffffffffffffffffffffffffffffffffffff82169050919050565b6000819050919050565b7f4e487b7100000000000000000000000000000000000000000000000000000000600052601160045260246000fd5b600080fd5b620002e38162000252565b8114620002ef57600080fd5b50565b620002fd8162000266565b81146200030957600080fd5b50565b62000317816200029a565b81146200032357600080fd5b50565b61102b80620003366000396000f3fe60806040526004361061007b5760003560e01c806391f901571161004e57806391f901571461010b578063b9d1fb6114610136578063d57bde791461014d578063eb54f9ec146101785761007b565b80631998aeef1461008057806338af3eed1461008a5780633ccfd60b146100b55780634b449cba146100e0575b600080fd5b6100886101a3565b005b34801561009657600080fd5b5061009f610333565b6040516100ac9190610af1565b60405180910390f35b3480156100c157600080fd5b506100ca610359565b6040516100d79190610b6c565b60405180910390f35b3480156100ec57600080fd5b506100f5610595565b6040516101029190610c67565b60405180910390f35b34801561011757600080fd5b5061012061059b565b60405161012d9190610ad6565b60405180910390f35b34801561014257600080fd5b5061014b6105c1565b005b34801561015957600080fd5b50610162610961565b60405161016f9190610c67565b60405180910390f35b34801561018457600080fd5b5061018d610967565b60405161019a9190610c67565b60405180910390f35b60035434116101e7576040517f08c379a00000000000000000000000000000000000000000000000000000000081526004016101de90610be7565b60405180910390fd5b600554421061022b576040517f08c379a000000000000000000000000000000000000000000000000000000000815260040161022290610c07565b60405180910390fd5b6000600354146102b05760035460086000600260009054906101000a900473ffffffffffffffffffffffffffffffffffffffff1673ffffffffffffffffffffffffffffffffffffffff1673ffffffffffffffffffffffffffffffffffffffff16815260200190815260200160002060008282546102a89190610c9e565b925050819055505b33600260006101000a81548173ffffffffffffffffffffffffffffffffffffffff021916908373ffffffffffffffffffffffffffffffffffffffff160217905550346003819055507ff4757a49b326036464bec6fe419a4ae38c8a02ce3e68bf0809674f6aab8ad3003334604051610329929190610b43565b60405180910390a1565b600160009054906101000a900473ffffffffffffffffffffffffffffffffffffffff1681565b600080600860003373ffffffffffffffffffffffffffffffffffffffff1673ffffffffffffffffffffffffffffffffffffffff16815260200190815260200160002054905060055442116103e2576040517f08c379a00000000000000000000000000000000000000000000000000000000081526004016103d990610bc7565b60405180910390fd5b600260009054906101000a900473ffffffffffffffffffffffffffffffffffffffff1673ffffffffffffffffffffffffffffffffffffffff163373ffffffffffffffffffffffffffffffffffffffff161415610473576040517f08c379a000000000000000000000000000000000000000000000000000000000815260040161046a90610c27565b60405180910390fd5b600081116104b6576040517f08c379a00000000000000000000000000000000000000000000000000000000081526004016104ad90610ba7565b60405180910390fd5b600081111561058c576000600860003373ffffffffffffffffffffffffffffffffffffffff1673ffffffffffffffffffffffffffffffffffffffff168152602001908152602001600020819055503373ffffffffffffffffffffffffffffffffffffffff166108fc829081150290604051600060405180830381858888f1935050505061058b5780600860003373ffffffffffffffffffffffffffffffffffffffff1673ffffffffffffffffffffffffffffffffffffffff168152602001908152602001600020819055506000915050610592565b5b60019150505b90565b60055481565b600260009054906101000a900473ffffffffffffffffffffffffffffffffffffffff1681565b60008054906101000a900473ffffffffffffffffffffffffffffffffffffffff1673ffffffffffffffffffffffffffffffffffffffff163373ffffffffffffffffffffffffffffffffffffffff161461064f576040517f08c379a000000000000000000000000000000000000000000000000000000000815260040161064690610c47565b60405180910390fd5b6000600860003373ffffffffffffffffffffffffffffffffffffffff1673ffffffffffffffffffffffffffffffffffffffff16815260200190815260200160002054905060055442116106d7576040517f08c379a00000000000000000000000000000000000000000000000000000000081526004016106ce90610b87565b60405180910390fd5b6000600160009054906101000a900473ffffffffffffffffffffffffffffffffffffffff1673ffffffffffffffffffffffffffffffffffffffff1660405161071e90610ac1565b6000604051808303816000865af19150503d806000811461075b576040519150601f19603f3d011682016040523d82523d6000602084013e610760565b606091505b50509050801561082457600660009054906101000a900473ffffffffffffffffffffffffffffffffffffffff1673ffffffffffffffffffffffffffffffffffffffff166323b872dd33600260009054906101000a900473ffffffffffffffffffffffffffffffffffffffff166007546040518463ffffffff1660e01b81526004016107ed93929190610b0c565b600060405180830381600087803b15801561080757600080fd5b505af115801561081b573d6000803e3d6000fd5b5050505061088b565b8160086000600260009054906101000a900473ffffffffffffffffffffffffffffffffffffffff1673ffffffffffffffffffffffffffffffffffffffff1673ffffffffffffffffffffffffffffffffffffffff168152602001908152602001600020819055505b8061089557600080fd5b7fdaec4582d5d9595688c8c98545fdd1c696d41c6aeaeb636737e84ed2f5c00eda600260009054906101000a900473ffffffffffffffffffffffffffffffffffffffff166003546040516108ea929190610b43565b60405180910390a1600160009054906101000a900473ffffffffffffffffffffffffffffffffffffffff1673ffffffffffffffffffffffffffffffffffffffff166108fc6003549081150290604051600060405180830381858888f1935050505015801561095c573d6000803e3d6000fd5b505050565b60035481565b60045481565b61097681610d06565b82525050565b61098581610cf4565b82525050565b61099481610d18565b82525050565b60006109a7602183610c8d565b91506109b282610d7d565b604082019050919050565b60006109ca603583610c8d565b91506109d582610dcc565b604082019050919050565b60006109ed605e83610c8d565b91506109f882610e1b565b606082019050919050565b6000610a10604583610c8d565b9150610a1b82610e90565b606082019050919050565b6000610a33600083610c82565b9150610a3e82610f05565b600082019050919050565b6000610a56603983610c8d565b9150610a6182610f08565b604082019050919050565b6000610a79603083610c8d565b9150610a8482610f57565b604082019050919050565b6000610a9c602e83610c8d565b9150610aa782610fa6565b604082019050919050565b610abb81610d44565b82525050565b6000610acc82610a26565b9150819050919050565b6000602082019050610aeb600083018461097c565b92915050565b6000602082019050610b06600083018461096d565b92915050565b6000606082019050610b21600083018661097c565b610b2e602083018561097c565b610b3b6040830184610ab2565b949350505050565b6000604082019050610b58600083018561097c565b610b656020830184610ab2565b9392505050565b6000602082019050610b81600083018461098b565b92915050565b60006020820190508181036000830152610ba08161099a565b9050919050565b60006020820190508181036000830152610bc0816109bd565b9050919050565b60006020820190508181036000830152610be0816109e0565b9050919050565b60006020820190508181036000830152610c0081610a03565b9050919050565b60006020820190508181036000830152610c2081610a49565b9050919050565b60006020820190508181036000830152610c4081610a6c565b9050919050565b60006020820190508181036000830152610c6081610a8f565b9050919050565b6000602082019050610c7c6000830184610ab2565b92915050565b600081905092915050565b600082825260208201905092915050565b6000610ca982610d44565b9150610cb483610d44565b9250827fffffffffffffffffffffffffffffffffffffffffffffffffffffffffffffffff03821115610ce957610ce8610d4e565b5b828201905092915050565b6000610cff82610d24565b9050919050565b6000610d1182610d24565b9050919050565b60008115159050919050565b600073ffffffffffffffffffffffffffffffffffffffff82169050919050565b6000819050919050565b7f4e487b7100000000000000000000000000000000000000000000000000000000600052601160045260246000fd5b7f41756374696f6e20686173206e6f74206265656e20656e64656420796574212160008201527f2100000000000000000000000000000000000000000000000000000000000000602082015250565b7f4f6e6c792056616c696420426964646572732063616e2077697468647261772060008201527f74686569722042696464696e6720616d6f756e74730000000000000000000000602082015250565b7f41756374696f6e20686173206e6f74206265656e20656e64656420796574212160008201527f2120596f752063616e6e6f7420776974686472617720796f757220626964646960208201527f6e6720616d6f756e7473206265666f72652061756374696f6e20656e64730000604082015250565b7f546865726520697320616c72656164792061206869676865722062696420212160008201527f2120506c656173652062696420686967686572207468616e2070726569766f7560208201527f7320626964000000000000000000000000000000000000000000000000000000604082015250565b50565b7f41756374696f6e20686173206265656e20656e6465642121214279652042796560008201527f2068617665206120676f6f64206461792061686561642e2e2e00000000000000602082015250565b7f48696768657374204269646465722063616e277420776974686472617720697460008201527f732062696464696e6720616d6f756e7400000000000000000000000000000000602082015250565b7f4f6e6c79204f776e65722063616e2063726561746520616e64206465706c6f7960008201527f20746869732046756e6374696f6e00000000000000000000000000000000000060208201525056fea26469706673582212205bfa3ef49080ce282cfe007aaea231d1e436756ce854254ac0413e5bdd01c91c64736f6c63430008050033",
  "immutableReferences": {},
  "source": "// SPDX-License-Identifier: MIT\r\npragma solidity >=0.7.0 <0.9.0;\r\n\r\nimport \"./NFTOriginalsContract.sol\";\r\n\r\ncontract AuctionContract{\r\n    \r\n    //Declaration of the variables\r\n    address owner;\r\n    address payable public beneficiary;\r\n    address public highestBidder;\r\n    uint public highestBid=0;\r\n    uint public auctionStartTime;\r\n    uint public auctionEndTime;\r\n    NFTOriginalsContract assetContractAddress;\r\n    uint tokenId;\r\n    \r\n    //Creation of the modifier\r\n    modifier onlyOwner{\r\n        //Require statement\r\n        require(msg.sender == owner ,\"Only Owner can create and deploy this Function\");\r\n        _;\r\n    }\r\n\r\n    //Creation of the mapping\r\n    mapping(address => uint) pending_returns;\r\n\r\n    //Creation of the event\r\n    event HighestBidIncreased(address bidder, uint amount);\r\n    event AuctionEnded(address winner, uint amount);\r\n\r\n    //Creation of the constructor\r\n    constructor(address payable _beneficiary,NFTOriginalsContract _assetContract,uint _biddingTime,uint _tokenId) {\r\n        \r\n        owner = msg.sender;\r\n        beneficiary = _beneficiary;\r\n        auctionStartTime=block.timestamp;\r\n        auctionEndTime= block.timestamp + _biddingTime;\r\n        assetContractAddress = _assetContract;\r\n        tokenId = _tokenId;\r\n       }\r\n    \r\n    //Defining of the function\r\n    function bid() public payable{\r\n          \r\n        //Require condition\r\n        require(msg.value > highestBid,\"There is already a higher bid !!! Please bid higher than preivous bid\");\r\n        require(block.timestamp < auctionEndTime,\"Auction has been ended!!!Bye Bye have a good day ahead...\");\r\n\r\n        //If condition\r\n        if (highestBid != 0) {\r\n            \r\n            pending_returns[highestBidder] += highestBid;\r\n        }\r\n        \r\n        //Copying msg.sender and msg.value into variables highestBidder and highestBid\r\n        highestBidder = msg.sender;\r\n        highestBid = msg.value;\r\n        \r\n        //Emittion of the event\r\n        emit HighestBidIncreased(msg.sender, msg.value);\r\n    }\r\n    \r\n    //Defining of the function\r\n    function withdraw() public returns(bool){\r\n        \r\n        //Copying data from one datatype to another datatype\r\n        uint amount = pending_returns[msg.sender];\r\n        \r\n        //Require statement\r\n        require(block.timestamp > auctionEndTime,\"Auction has not been ended yet!!! You cannot withdraw your bidding amounts before auction ends\");\r\n        require(msg.sender != highestBidder,\"Highest Bidder can't withdraw its bidding amount\");\r\n        require(amount > 0,\"Only Valid Bidders can withdraw their Bidding amounts\");\r\n        \r\n        //If condition\r\n        if (amount > 0) {\r\n            \r\n            //This is set to 0 because the user will call this function again as a part of the receiving call before the withdraw function returns anything.\r\n            //For eg.1 Case:- By default pending_returns will be 0 if suppose user bids 1 ether then it will set 1 ether but after withdraw function call it will again set to 0, in this user will not get confused about his/her balances in pending_returns.\r\n            //       2 Case:- If pending_returns is set to 1 by default and if suppose user bids 1 ether then it set to 1000000000000000001 eher but after withdraw function it will again set to 1, in this user will get confused that his/her balances is still remaining in the pending_returns.\r\n            pending_returns[msg.sender] = 0;\r\n\r\n             if (!payable(msg.sender).send(amount)) {\r\n                // No need to call throw here, just reset the amount owing\r\n                pending_returns[msg.sender] = amount;\r\n                return false;\r\n            }\r\n        }\r\n        return true;\r\n    }\r\n    \r\n    //Defining of the function\r\n    function auctionend() public onlyOwner{\r\n        \r\n        //Copying the data from one datatype to another datatype\r\n        uint amount = pending_returns[msg.sender];\r\n        \r\n        //Require statement\r\n        require(block.timestamp > auctionEndTime,\"Auction has not been ended yet!!!\");\r\n        \r\n        //If else condition\r\n        (bool success,)=payable(beneficiary).call(\"\");\r\n        if(success){\r\n            assetContractAddress.transferFrom(msg.sender,highestBidder,tokenId);\r\n        }else{\r\n            pending_returns[highestBidder]=amount;\r\n        }\r\n        require(success);\r\n        \r\n        //Emition of the event\r\n        emit AuctionEnded(highestBidder, highestBid);\r\n        \r\n        //Transfering the highestBid amount of highestBidder to a beneficiary wallet\r\n        beneficiary.transfer(highestBid);\r\n    }\r\n}",
  "sourcePath": "G:/Workspaces_AllinOne/Workspaces_AliTeam/Workspace_NFT_Marketplace/nft-marketplace-backend/nft-marketplace/src/contracts/AuctionContract.sol",
  "compiler": {
    "name": "solc",
    "version": "0.8.5+commit.a4f2e591.Emscripten.clang"
  },
  "schemaVersion": "3.4.1",
  "updatedAt": "2021-08-22T14:43:59.978Z",
  "networkType": "ethereum",
  "devdoc": {
    "kind": "dev",
    "methods": {},
    "version": 1
  },
  "userdoc": {
    "kind": "user",
    "methods": {},
    "version": 1
  }
}