{
  "contractName": "NFTOriginalsContract",
  "abi": [
    {
      "inputs": [
        {
          "internalType": "uint256",
          "name": "totalSupply_",
          "type": "uint256"
        }
      ],
      "stateMutability": "nonpayable",
      "type": "constructor"
    },
    {
      "anonymous": false,
      "inputs": [
        {
          "indexed": true,
          "internalType": "address",
          "name": "owner",
          "type": "address"
        },
        {
          "indexed": true,
          "internalType": "address",
          "name": "approved",
          "type": "address"
        },
        {
          "indexed": true,
          "internalType": "uint256",
          "name": "tokenId",
          "type": "uint256"
        }
      ],
      "name": "Approval",
      "type": "event"
    },
    {
      "anonymous": false,
      "inputs": [
        {
          "indexed": true,
          "internalType": "address",
          "name": "owner",
          "type": "address"
        },
        {
          "indexed": true,
          "internalType": "address",
          "name": "operator",
          "type": "address"
        },
        {
          "indexed": false,
          "internalType": "bool",
          "name": "approved",
          "type": "bool"
        }
      ],
      "name": "ApprovalForAll",
      "type": "event"
    },
    {
      "anonymous": false,
      "inputs": [
        {
          "indexed": true,
          "internalType": "address",
          "name": "previousOwner",
          "type": "address"
        },
        {
          "indexed": true,
          "internalType": "address",
          "name": "newOwner",
          "type": "address"
        }
      ],
      "name": "OwnershipTransferred",
      "type": "event"
    },
    {
      "anonymous": false,
      "inputs": [
        {
          "indexed": true,
          "internalType": "address",
          "name": "from",
          "type": "address"
        },
        {
          "indexed": true,
          "internalType": "address",
          "name": "to",
          "type": "address"
        },
        {
          "indexed": true,
          "internalType": "uint256",
          "name": "tokenId",
          "type": "uint256"
        }
      ],
      "name": "Transfer",
      "type": "event"
    },
    {
      "inputs": [
        {
          "internalType": "address",
          "name": "to",
          "type": "address"
        },
        {
          "internalType": "uint256",
          "name": "tokenId",
          "type": "uint256"
        }
      ],
      "name": "approve",
      "outputs": [],
      "stateMutability": "nonpayable",
      "type": "function"
    },
    {
      "inputs": [
        {
          "internalType": "address",
          "name": "owner",
          "type": "address"
        }
      ],
      "name": "balanceOf",
      "outputs": [
        {
          "internalType": "uint256",
          "name": "",
          "type": "uint256"
        }
      ],
      "stateMutability": "view",
      "type": "function",
      "constant": true
    },
    {
      "inputs": [
        {
          "internalType": "uint256",
          "name": "tokenId",
          "type": "uint256"
        }
      ],
      "name": "getApproved",
      "outputs": [
        {
          "internalType": "address",
          "name": "",
          "type": "address"
        }
      ],
      "stateMutability": "view",
      "type": "function",
      "constant": true
    },
    {
      "inputs": [
        {
          "internalType": "address",
          "name": "owner",
          "type": "address"
        },
        {
          "internalType": "address",
          "name": "operator",
          "type": "address"
        }
      ],
      "name": "isApprovedForAll",
      "outputs": [
        {
          "internalType": "bool",
          "name": "",
          "type": "bool"
        }
      ],
      "stateMutability": "view",
      "type": "function",
      "constant": true
    },
    {
      "inputs": [],
      "name": "name",
      "outputs": [
        {
          "internalType": "string",
          "name": "",
          "type": "string"
        }
      ],
      "stateMutability": "view",
      "type": "function",
      "constant": true
    },
    {
      "inputs": [],
      "name": "owner",
      "outputs": [
        {
          "internalType": "address",
          "name": "",
          "type": "address"
        }
      ],
      "stateMutability": "view",
      "type": "function",
      "constant": true
    },
    {
      "inputs": [
        {
          "internalType": "uint256",
          "name": "tokenId",
          "type": "uint256"
        }
      ],
      "name": "ownerOf",
      "outputs": [
        {
          "internalType": "address",
          "name": "",
          "type": "address"
        }
      ],
      "stateMutability": "view",
      "type": "function",
      "constant": true
    },
    {
      "inputs": [],
      "name": "renounceOwnership",
      "outputs": [],
      "stateMutability": "nonpayable",
      "type": "function"
    },
    {
      "inputs": [
        {
          "internalType": "address",
          "name": "from",
          "type": "address"
        },
        {
          "internalType": "address",
          "name": "to",
          "type": "address"
        },
        {
          "internalType": "uint256",
          "name": "tokenId",
          "type": "uint256"
        }
      ],
      "name": "safeTransferFrom",
      "outputs": [],
      "stateMutability": "nonpayable",
      "type": "function"
    },
    {
      "inputs": [
        {
          "internalType": "address",
          "name": "from",
          "type": "address"
        },
        {
          "internalType": "address",
          "name": "to",
          "type": "address"
        },
        {
          "internalType": "uint256",
          "name": "tokenId",
          "type": "uint256"
        },
        {
          "internalType": "bytes",
          "name": "_data",
          "type": "bytes"
        }
      ],
      "name": "safeTransferFrom",
      "outputs": [],
      "stateMutability": "nonpayable",
      "type": "function"
    },
    {
      "inputs": [
        {
          "internalType": "address",
          "name": "operator",
          "type": "address"
        },
        {
          "internalType": "bool",
          "name": "approved",
          "type": "bool"
        }
      ],
      "name": "setApprovalForAll",
      "outputs": [],
      "stateMutability": "nonpayable",
      "type": "function"
    },
    {
      "inputs": [
        {
          "internalType": "bytes4",
          "name": "interfaceId",
          "type": "bytes4"
        }
      ],
      "name": "supportsInterface",
      "outputs": [
        {
          "internalType": "bool",
          "name": "",
          "type": "bool"
        }
      ],
      "stateMutability": "view",
      "type": "function",
      "constant": true
    },
    {
      "inputs": [],
      "name": "symbol",
      "outputs": [
        {
          "internalType": "string",
          "name": "",
          "type": "string"
        }
      ],
      "stateMutability": "view",
      "type": "function",
      "constant": true
    },
    {
      "inputs": [
        {
          "internalType": "uint256",
          "name": "tokenId",
          "type": "uint256"
        }
      ],
      "name": "tokenURI",
      "outputs": [
        {
          "internalType": "string",
          "name": "",
          "type": "string"
        }
      ],
      "stateMutability": "view",
      "type": "function",
      "constant": true
    },
    {
      "inputs": [
        {
          "internalType": "address",
          "name": "from",
          "type": "address"
        },
        {
          "internalType": "address",
          "name": "to",
          "type": "address"
        },
        {
          "internalType": "uint256",
          "name": "tokenId",
          "type": "uint256"
        }
      ],
      "name": "transferFrom",
      "outputs": [],
      "stateMutability": "nonpayable",
      "type": "function"
    },
    {
      "inputs": [
        {
          "internalType": "address",
          "name": "newOwner",
          "type": "address"
        }
      ],
      "name": "transferOwnership",
      "outputs": [],
      "stateMutability": "nonpayable",
      "type": "function"
    },
    {
      "inputs": [
        {
          "internalType": "string",
          "name": "tokenURI",
          "type": "string"
        }
      ],
      "name": "createNftToken",
      "outputs": [
        {
          "internalType": "uint256",
          "name": "",
          "type": "uint256"
        }
      ],
      "stateMutability": "payable",
      "type": "function",
      "payable": true
    },
    {
      "inputs": [],
      "name": "totalSupply",
      "outputs": [
        {
          "internalType": "uint256",
          "name": "",
          "type": "uint256"
        }
      ],
      "stateMutability": "view",
      "type": "function",
      "constant": true
    },
    {
      "inputs": [
        {
          "internalType": "string",
          "name": "__baseURI",
          "type": "string"
        }
      ],
      "name": "setBaseURI",
      "outputs": [],
      "stateMutability": "nonpayable",
      "type": "function"
    },
    {
      "inputs": [],
      "name": "getNFTPrice",
      "outputs": [
        {
          "internalType": "uint256",
          "name": "",
          "type": "uint256"
        }
      ],
      "stateMutability": "view",
      "type": "function",
      "constant": true
    },
    {
      "inputs": [
        {
          "internalType": "uint256",
          "name": "_price",
          "type": "uint256"
        }
      ],
      "name": "setNFTPrice",
      "outputs": [],
      "stateMutability": "nonpayable",
      "type": "function"
    }
  ],
  "bytecode": "0x608060405260405180602001604052806000815250600a90805190602001906200002b92919062000204565b5066038d7ea4c68000600b553480156200004457600080fd5b506040516200383e3803806200383e83398181016040528101906200006a9190620002cb565b6040518060400160405280600c81526020017f4e46544f726967696e616c7300000000000000000000000000000000000000008152506040518060400160405280600481526020017f4e46544f00000000000000000000000000000000000000000000000000000000815250620000f6620000ea6200013860201b60201c565b6200014060201b60201c565b81600190805190602001906200010e92919062000204565b5080600290805190602001906200012792919062000204565b50505080600981905550506200038b565b600033905090565b60008060009054906101000a900473ffffffffffffffffffffffffffffffffffffffff169050816000806101000a81548173ffffffffffffffffffffffffffffffffffffffff021916908373ffffffffffffffffffffffffffffffffffffffff1602179055508173ffffffffffffffffffffffffffffffffffffffff168173ffffffffffffffffffffffffffffffffffffffff167f8be0079c531659141344cd1fd0a4f28419497f9722a3daafe3b4186f6b6457e060405160405180910390a35050565b828054620002129062000307565b90600052602060002090601f01602090048101928262000236576000855562000282565b82601f106200025157805160ff191683800117855562000282565b8280016001018555821562000282579182015b828111156200028157825182559160200191906001019062000264565b5b50905062000291919062000295565b5090565b5b80821115620002b057600081600090555060010162000296565b5090565b600081519050620002c58162000371565b92915050565b600060208284031215620002e457620002e36200036c565b5b6000620002f484828501620002b4565b91505092915050565b6000819050919050565b600060028204905060018216806200032057607f821691505b602082108114156200033757620003366200033d565b5b50919050565b7f4e487b7100000000000000000000000000000000000000000000000000000000600052602260045260246000fd5b600080fd5b6200037c81620002fd565b81146200038857600080fd5b50565b6134a3806200039b6000396000f3fe60806040526004361061012a5760003560e01c8063715018a6116100ab578063aaeb17401161006f578063aaeb1740146103dc578063b88d4fde1461040c578063c87b56dd14610435578063e985e9c514610472578063f2fde38b146104af578063fb107a4f146104d85761012a565b8063715018a61461031d57806381530b68146103345780638da5cb5b1461035d57806395d89b4114610388578063a22cb465146103b35761012a565b806323b872dd116100f257806323b872dd1461022857806342842e0e1461025157806355f804b31461027a5780636352211e146102a357806370a08231146102e05761012a565b806301ffc9a71461012f57806306fdde031461016c578063081812fc14610197578063095ea7b3146101d457806318160ddd146101fd575b600080fd5b34801561013b57600080fd5b5061015660048036038101906101519190612296565b610503565b604051610163919061277d565b60405180910390f35b34801561017857600080fd5b506101816105e5565b60405161018e9190612798565b60405180910390f35b3480156101a357600080fd5b506101be60048036038101906101b99190612339565b610677565b6040516101cb9190612716565b60405180910390f35b3480156101e057600080fd5b506101fb60048036038101906101f69190612256565b6106fc565b005b34801561020957600080fd5b50610212610814565b60405161021f9190612a3a565b60405180910390f35b34801561023457600080fd5b5061024f600480360381019061024a9190612140565b61081e565b005b34801561025d57600080fd5b5061027860048036038101906102739190612140565b61087e565b005b34801561028657600080fd5b506102a1600480360381019061029c91906122f0565b61089e565b005b3480156102af57600080fd5b506102ca60048036038101906102c59190612339565b610934565b6040516102d79190612716565b60405180910390f35b3480156102ec57600080fd5b50610307600480360381019061030291906120d3565b6109e6565b6040516103149190612a3a565b60405180910390f35b34801561032957600080fd5b50610332610a9e565b005b34801561034057600080fd5b5061035b60048036038101906103569190612339565b610b26565b005b34801561036957600080fd5b50610372610bac565b60405161037f9190612716565b60405180910390f35b34801561039457600080fd5b5061039d610bd5565b6040516103aa9190612798565b60405180910390f35b3480156103bf57600080fd5b506103da60048036038101906103d59190612216565b610c67565b005b6103f660048036038101906103f191906122f0565b610de8565b6040516104039190612a3a565b60405180910390f35b34801561041857600080fd5b50610433600480360381019061042e9190612193565b610efd565b005b34801561044157600080fd5b5061045c60048036038101906104579190612339565b610f5f565b6040516104699190612798565b60405180910390f35b34801561047e57600080fd5b5061049960048036038101906104949190612100565b6110b1565b6040516104a6919061277d565b60405180910390f35b3480156104bb57600080fd5b506104d660048036038101906104d191906120d3565b611145565b005b3480156104e457600080fd5b506104ed61123d565b6040516104fa9190612a3a565b60405180910390f35b60007f80ac58cd000000000000000000000000000000000000000000000000000000007bffffffffffffffffffffffffffffffffffffffffffffffffffffffff1916827bffffffffffffffffffffffffffffffffffffffffffffffffffffffff191614806105ce57507f5b5e139f000000000000000000000000000000000000000000000000000000007bffffffffffffffffffffffffffffffffffffffffffffffffffffffff1916827bffffffffffffffffffffffffffffffffffffffffffffffffffffffff1916145b806105de57506105dd82611247565b5b9050919050565b6060600180546105f490612c90565b80601f016020809104026020016040519081016040528092919081815260200182805461062090612c90565b801561066d5780601f106106425761010080835404028352916020019161066d565b820191906000526020600020905b81548152906001019060200180831161065057829003601f168201915b5050505050905090565b6000610682826112b1565b6106c1576040517f08c379a00000000000000000000000000000000000000000000000000000000081526004016106b89061297a565b60405180910390fd5b6005600083815260200190815260200160002060009054906101000a900473ffffffffffffffffffffffffffffffffffffffff169050919050565b600061070782610934565b90508073ffffffffffffffffffffffffffffffffffffffff168373ffffffffffffffffffffffffffffffffffffffff161415610778576040517f08c379a000000000000000000000000000000000000000000000000000000000815260040161076f906129fa565b60405180910390fd5b8073ffffffffffffffffffffffffffffffffffffffff1661079761131d565b73ffffffffffffffffffffffffffffffffffffffff1614806107c657506107c5816107c061131d565b6110b1565b5b610805576040517f08c379a00000000000000000000000000000000000000000000000000000000081526004016107fc9061289a565b60405180910390fd5b61080f8383611325565b505050565b6000600954905090565b61082f61082961131d565b826113de565b61086e576040517f08c379a000000000000000000000000000000000000000000000000000000000815260040161086590612a1a565b60405180910390fd5b6108798383836114bc565b505050565b61089983838360405180602001604052806000815250610efd565b505050565b6108a661131d565b73ffffffffffffffffffffffffffffffffffffffff166108c4610bac565b73ffffffffffffffffffffffffffffffffffffffff161461091a576040517f08c379a00000000000000000000000000000000000000000000000000000000081526004016109119061299a565b60405180910390fd5b80600a9080519060200190610930929190611ee7565b5050565b6000806003600084815260200190815260200160002060009054906101000a900473ffffffffffffffffffffffffffffffffffffffff169050600073ffffffffffffffffffffffffffffffffffffffff168173ffffffffffffffffffffffffffffffffffffffff1614156109dd576040517f08c379a00000000000000000000000000000000000000000000000000000000081526004016109d4906128da565b60405180910390fd5b80915050919050565b60008073ffffffffffffffffffffffffffffffffffffffff168273ffffffffffffffffffffffffffffffffffffffff161415610a57576040517f08c379a0000000000000000000000000000000000000000000000000000000008152600401610a4e906128ba565b60405180910390fd5b600460008373ffffffffffffffffffffffffffffffffffffffff1673ffffffffffffffffffffffffffffffffffffffff168152602001908152602001600020549050919050565b610aa661131d565b73ffffffffffffffffffffffffffffffffffffffff16610ac4610bac565b73ffffffffffffffffffffffffffffffffffffffff1614610b1a576040517f08c379a0000000000000000000000000000000000000000000000000000000008152600401610b119061299a565b60405180910390fd5b610b246000611718565b565b610b2e61131d565b73ffffffffffffffffffffffffffffffffffffffff16610b4c610bac565b73ffffffffffffffffffffffffffffffffffffffff1614610ba2576040517f08c379a0000000000000000000000000000000000000000000000000000000008152600401610b999061299a565b60405180910390fd5b80600b8190555050565b60008060009054906101000a900473ffffffffffffffffffffffffffffffffffffffff16905090565b606060028054610be490612c90565b80601f0160208091040260200160405190810160405280929190818152602001828054610c1090612c90565b8015610c5d5780601f10610c3257610100808354040283529160200191610c5d565b820191906000526020600020905b815481529060010190602001808311610c4057829003601f168201915b5050505050905090565b610c6f61131d565b73ffffffffffffffffffffffffffffffffffffffff168273ffffffffffffffffffffffffffffffffffffffff161415610cdd576040517f08c379a0000000000000000000000000000000000000000000000000000000008152600401610cd49061285a565b60405180910390fd5b8060066000610cea61131d565b73ffffffffffffffffffffffffffffffffffffffff1673ffffffffffffffffffffffffffffffffffffffff16815260200190815260200160002060008473ffffffffffffffffffffffffffffffffffffffff1673ffffffffffffffffffffffffffffffffffffffff16815260200190815260200160002060006101000a81548160ff0219169083151502179055508173ffffffffffffffffffffffffffffffffffffffff16610d9761131d565b73ffffffffffffffffffffffffffffffffffffffff167f17307eab39ab6107e8899845ad3d59bd9653f200f220920489ca2b5937696c3183604051610ddc919061277d565b60405180910390a35050565b6000600b543414610e2e576040517f08c379a0000000000000000000000000000000000000000000000000000000008152600401610e25906127ba565b60405180910390fd5b610e3860086117dc565b6000610e4460086117f2565b90506009548110610e8a576040517f08c379a0000000000000000000000000000000000000000000000000000000008152600401610e819061291a565b60405180910390fd5b610e943382611800565b610e9e81846119ce565b6000610ea8610bac565b90508073ffffffffffffffffffffffffffffffffffffffff166108fc600b549081150290604051600060405180830381858888f19350505050158015610ef2573d6000803e3d6000fd5b508192505050919050565b610f0e610f0861131d565b836113de565b610f4d576040517f08c379a0000000000000000000000000000000000000000000000000000000008152600401610f4490612a1a565b60405180910390fd5b610f5984848484611a42565b50505050565b6060610f6a826112b1565b610fa9576040517f08c379a0000000000000000000000000000000000000000000000000000000008152600401610fa09061295a565b60405180910390fd5b6000600760008481526020019081526020016000208054610fc990612c90565b80601f0160208091040260200160405190810160405280929190818152602001828054610ff590612c90565b80156110425780601f1061101757610100808354040283529160200191611042565b820191906000526020600020905b81548152906001019060200180831161102557829003601f168201915b505050505090506000611053611a9e565b90506000815114156110695781925050506110ac565b60008251111561109e5780826040516020016110869291906126f2565b604051602081830303815290604052925050506110ac565b6110a784611b30565b925050505b919050565b6000600660008473ffffffffffffffffffffffffffffffffffffffff1673ffffffffffffffffffffffffffffffffffffffff16815260200190815260200160002060008373ffffffffffffffffffffffffffffffffffffffff1673ffffffffffffffffffffffffffffffffffffffff16815260200190815260200160002060009054906101000a900460ff16905092915050565b61114d61131d565b73ffffffffffffffffffffffffffffffffffffffff1661116b610bac565b73ffffffffffffffffffffffffffffffffffffffff16146111c1576040517f08c379a00000000000000000000000000000000000000000000000000000000081526004016111b89061299a565b60405180910390fd5b600073ffffffffffffffffffffffffffffffffffffffff168173ffffffffffffffffffffffffffffffffffffffff161415611231576040517f08c379a0000000000000000000000000000000000000000000000000000000008152600401611228906127fa565b60405180910390fd5b61123a81611718565b50565b6000600b54905090565b60007f01ffc9a7000000000000000000000000000000000000000000000000000000007bffffffffffffffffffffffffffffffffffffffffffffffffffffffff1916827bffffffffffffffffffffffffffffffffffffffffffffffffffffffff1916149050919050565b60008073ffffffffffffffffffffffffffffffffffffffff166003600084815260200190815260200160002060009054906101000a900473ffffffffffffffffffffffffffffffffffffffff1673ffffffffffffffffffffffffffffffffffffffff1614159050919050565b600033905090565b816005600083815260200190815260200160002060006101000a81548173ffffffffffffffffffffffffffffffffffffffff021916908373ffffffffffffffffffffffffffffffffffffffff160217905550808273ffffffffffffffffffffffffffffffffffffffff1661139883610934565b73ffffffffffffffffffffffffffffffffffffffff167f8c5be1e5ebec7d5bd14f71427d1e84f3dd0314c0f7b2291e5b200ac8c7c3b92560405160405180910390a45050565b60006113e9826112b1565b611428576040517f08c379a000000000000000000000000000000000000000000000000000000000815260040161141f9061287a565b60405180910390fd5b600061143383610934565b90508073ffffffffffffffffffffffffffffffffffffffff168473ffffffffffffffffffffffffffffffffffffffff1614806114a257508373ffffffffffffffffffffffffffffffffffffffff1661148a84610677565b73ffffffffffffffffffffffffffffffffffffffff16145b806114b357506114b281856110b1565b5b91505092915050565b8273ffffffffffffffffffffffffffffffffffffffff166114dc82610934565b73ffffffffffffffffffffffffffffffffffffffff1614611532576040517f08c379a0000000000000000000000000000000000000000000000000000000008152600401611529906129ba565b60405180910390fd5b600073ffffffffffffffffffffffffffffffffffffffff168273ffffffffffffffffffffffffffffffffffffffff1614156115a2576040517f08c379a00000000000000000000000000000000000000000000000000000000081526004016115999061283a565b60405180910390fd5b6115ad838383611bd7565b6115b8600082611325565b6001600460008573ffffffffffffffffffffffffffffffffffffffff1673ffffffffffffffffffffffffffffffffffffffff16815260200190815260200160002060008282546116089190612ba6565b925050819055506001600460008473ffffffffffffffffffffffffffffffffffffffff1673ffffffffffffffffffffffffffffffffffffffff168152602001908152602001600020600082825461165f9190612b1f565b92505081905550816003600083815260200190815260200160002060006101000a81548173ffffffffffffffffffffffffffffffffffffffff021916908373ffffffffffffffffffffffffffffffffffffffff160217905550808273ffffffffffffffffffffffffffffffffffffffff168473ffffffffffffffffffffffffffffffffffffffff167fddf252ad1be2c89b69c2b068fc378daa952ba7f163c4a11628f55a4df523b3ef60405160405180910390a4505050565b60008060009054906101000a900473ffffffffffffffffffffffffffffffffffffffff169050816000806101000a81548173ffffffffffffffffffffffffffffffffffffffff021916908373ffffffffffffffffffffffffffffffffffffffff1602179055508173ffffffffffffffffffffffffffffffffffffffff168173ffffffffffffffffffffffffffffffffffffffff167f8be0079c531659141344cd1fd0a4f28419497f9722a3daafe3b4186f6b6457e060405160405180910390a35050565b6001816000016000828254019250508190555050565b600081600001549050919050565b600073ffffffffffffffffffffffffffffffffffffffff168273ffffffffffffffffffffffffffffffffffffffff161415611870576040517f08c379a00000000000000000000000000000000000000000000000000000000081526004016118679061293a565b60405180910390fd5b611879816112b1565b156118b9576040517f08c379a00000000000000000000000000000000000000000000000000000000081526004016118b09061281a565b60405180910390fd5b6118c560008383611bd7565b6001600460008473ffffffffffffffffffffffffffffffffffffffff1673ffffffffffffffffffffffffffffffffffffffff16815260200190815260200160002060008282546119159190612b1f565b92505081905550816003600083815260200190815260200160002060006101000a81548173ffffffffffffffffffffffffffffffffffffffff021916908373ffffffffffffffffffffffffffffffffffffffff160217905550808273ffffffffffffffffffffffffffffffffffffffff16600073ffffffffffffffffffffffffffffffffffffffff167fddf252ad1be2c89b69c2b068fc378daa952ba7f163c4a11628f55a4df523b3ef60405160405180910390a45050565b6119d7826112b1565b611a16576040517f08c379a0000000000000000000000000000000000000000000000000000000008152600401611a0d906128fa565b60405180910390fd5b80600760008481526020019081526020016000209080519060200190611a3d929190611ee7565b505050565b611a4d8484846114bc565b611a5984848484611bdc565b611a98576040517f08c379a0000000000000000000000000000000000000000000000000000000008152600401611a8f906127da565b60405180910390fd5b50505050565b6060600a8054611aad90612c90565b80601f0160208091040260200160405190810160405280929190818152602001828054611ad990612c90565b8015611b265780601f10611afb57610100808354040283529160200191611b26565b820191906000526020600020905b815481529060010190602001808311611b0957829003601f168201915b5050505050905090565b6060611b3b826112b1565b611b7a576040517f08c379a0000000000000000000000000000000000000000000000000000000008152600401611b71906129da565b60405180910390fd5b6000611b84611a9e565b90506000815111611ba45760405180602001604052806000815250611bcf565b80611bae84611d73565b604051602001611bbf9291906126f2565b6040516020818303038152906040525b915050919050565b505050565b6000611bfd8473ffffffffffffffffffffffffffffffffffffffff16611ed4565b15611d66578373ffffffffffffffffffffffffffffffffffffffff1663150b7a02611c2661131d565b8786866040518563ffffffff1660e01b8152600401611c489493929190612731565b602060405180830381600087803b158015611c6257600080fd5b505af1925050508015611c9357506040513d601f19601f82011682018060405250810190611c9091906122c3565b60015b611d16573d8060008114611cc3576040519150601f19603f3d011682016040523d82523d6000602084013e611cc8565b606091505b50600081511415611d0e576040517f08c379a0000000000000000000000000000000000000000000000000000000008152600401611d05906127da565b60405180910390fd5b805181602001fd5b63150b7a0260e01b7bffffffffffffffffffffffffffffffffffffffffffffffffffffffff1916817bffffffffffffffffffffffffffffffffffffffffffffffffffffffff191614915050611d6b565b600190505b949350505050565b60606000821415611dbb576040518060400160405280600181526020017f30000000000000000000000000000000000000000000000000000000000000008152509050611ecf565b600082905060005b60008214611ded578080611dd690612cf3565b915050600a82611de69190612b75565b9150611dc3565b60008167ffffffffffffffff811115611e0957611e08612e29565b5b6040519080825280601f01601f191660200182016040528015611e3b5781602001600182028036833780820191505090505b5090505b60008514611ec857600182611e549190612ba6565b9150600a85611e639190612d3c565b6030611e6f9190612b1f565b60f81b818381518110611e8557611e84612dfa565b5b60200101907effffffffffffffffffffffffffffffffffffffffffffffffffffffffffffff1916908160001a905350600a85611ec19190612b75565b9450611e3f565b8093505050505b919050565b600080823b905060008111915050919050565b828054611ef390612c90565b90600052602060002090601f016020900481019282611f155760008555611f5c565b82601f10611f2e57805160ff1916838001178555611f5c565b82800160010185558215611f5c579182015b82811115611f5b578251825591602001919060010190611f40565b5b509050611f699190611f6d565b5090565b5b80821115611f86576000816000905550600101611f6e565b5090565b6000611f9d611f9884612a7a565b612a55565b905082815260208101848484011115611fb957611fb8612e5d565b5b611fc4848285612c4e565b509392505050565b6000611fdf611fda84612aab565b612a55565b905082815260208101848484011115611ffb57611ffa612e5d565b5b612006848285612c4e565b509392505050565b60008135905061201d81613411565b92915050565b60008135905061203281613428565b92915050565b6000813590506120478161343f565b92915050565b60008151905061205c8161343f565b92915050565b600082601f83011261207757612076612e58565b5b8135612087848260208601611f8a565b91505092915050565b600082601f8301126120a5576120a4612e58565b5b81356120b5848260208601611fcc565b91505092915050565b6000813590506120cd81613456565b92915050565b6000602082840312156120e9576120e8612e67565b5b60006120f78482850161200e565b91505092915050565b6000806040838503121561211757612116612e67565b5b60006121258582860161200e565b92505060206121368582860161200e565b9150509250929050565b60008060006060848603121561215957612158612e67565b5b60006121678682870161200e565b93505060206121788682870161200e565b9250506040612189868287016120be565b9150509250925092565b600080600080608085870312156121ad576121ac612e67565b5b60006121bb8782880161200e565b94505060206121cc8782880161200e565b93505060406121dd878288016120be565b925050606085013567ffffffffffffffff8111156121fe576121fd612e62565b5b61220a87828801612062565b91505092959194509250565b6000806040838503121561222d5761222c612e67565b5b600061223b8582860161200e565b925050602061224c85828601612023565b9150509250929050565b6000806040838503121561226d5761226c612e67565b5b600061227b8582860161200e565b925050602061228c858286016120be565b9150509250929050565b6000602082840312156122ac576122ab612e67565b5b60006122ba84828501612038565b91505092915050565b6000602082840312156122d9576122d8612e67565b5b60006122e78482850161204d565b91505092915050565b60006020828403121561230657612305612e67565b5b600082013567ffffffffffffffff81111561232457612323612e62565b5b61233084828501612090565b91505092915050565b60006020828403121561234f5761234e612e67565b5b600061235d848285016120be565b91505092915050565b61236f81612bda565b82525050565b61237e81612bec565b82525050565b600061238f82612adc565b6123998185612af2565b93506123a9818560208601612c5d565b6123b281612e6c565b840191505092915050565b60006123c882612ae7565b6123d28185612b03565b93506123e2818560208601612c5d565b6123eb81612e6c565b840191505092915050565b600061240182612ae7565b61240b8185612b14565b935061241b818560208601612c5d565b80840191505092915050565b6000612434602d83612b03565b915061243f82612e7d565b604082019050919050565b6000612457603283612b03565b915061246282612ecc565b604082019050919050565b600061247a602683612b03565b915061248582612f1b565b604082019050919050565b600061249d601c83612b03565b91506124a882612f6a565b602082019050919050565b60006124c0602483612b03565b91506124cb82612f93565b604082019050919050565b60006124e3601983612b03565b91506124ee82612fe2565b602082019050919050565b6000612506602c83612b03565b91506125118261300b565b604082019050919050565b6000612529603883612b03565b91506125348261305a565b604082019050919050565b600061254c602a83612b03565b9150612557826130a9565b604082019050919050565b600061256f602983612b03565b915061257a826130f8565b604082019050919050565b6000612592602e83612b03565b915061259d82613147565b604082019050919050565b60006125b5602b83612b03565b91506125c082613196565b604082019050919050565b60006125d8602083612b03565b91506125e3826131e5565b602082019050919050565b60006125fb603183612b03565b91506126068261320e565b604082019050919050565b600061261e602c83612b03565b91506126298261325d565b604082019050919050565b6000612641602083612b03565b915061264c826132ac565b602082019050919050565b6000612664602983612b03565b915061266f826132d5565b604082019050919050565b6000612687602f83612b03565b915061269282613324565b604082019050919050565b60006126aa602183612b03565b91506126b582613373565b604082019050919050565b60006126cd603183612b03565b91506126d8826133c2565b604082019050919050565b6126ec81612c44565b82525050565b60006126fe82856123f6565b915061270a82846123f6565b91508190509392505050565b600060208201905061272b6000830184612366565b92915050565b60006080820190506127466000830187612366565b6127536020830186612366565b61276060408301856126e3565b81810360608301526127728184612384565b905095945050505050565b60006020820190506127926000830184612375565b92915050565b600060208201905081810360008301526127b281846123bd565b905092915050565b600060208201905081810360008301526127d381612427565b9050919050565b600060208201905081810360008301526127f38161244a565b9050919050565b600060208201905081810360008301526128138161246d565b9050919050565b6000602082019050818103600083015261283381612490565b9050919050565b60006020820190508181036000830152612853816124b3565b9050919050565b60006020820190508181036000830152612873816124d6565b9050919050565b60006020820190508181036000830152612893816124f9565b9050919050565b600060208201905081810360008301526128b38161251c565b9050919050565b600060208201905081810360008301526128d38161253f565b9050919050565b600060208201905081810360008301526128f381612562565b9050919050565b6000602082019050818103600083015261291381612585565b9050919050565b60006020820190508181036000830152612933816125a8565b9050919050565b60006020820190508181036000830152612953816125cb565b9050919050565b60006020820190508181036000830152612973816125ee565b9050919050565b6000602082019050818103600083015261299381612611565b9050919050565b600060208201905081810360008301526129b381612634565b9050919050565b600060208201905081810360008301526129d381612657565b9050919050565b600060208201905081810360008301526129f38161267a565b9050919050565b60006020820190508181036000830152612a138161269d565b9050919050565b60006020820190508181036000830152612a33816126c0565b9050919050565b6000602082019050612a4f60008301846126e3565b92915050565b6000612a5f612a70565b9050612a6b8282612cc2565b919050565b6000604051905090565b600067ffffffffffffffff821115612a9557612a94612e29565b5b612a9e82612e6c565b9050602081019050919050565b600067ffffffffffffffff821115612ac657612ac5612e29565b5b612acf82612e6c565b9050602081019050919050565b600081519050919050565b600081519050919050565b600082825260208201905092915050565b600082825260208201905092915050565b600081905092915050565b6000612b2a82612c44565b9150612b3583612c44565b9250827fffffffffffffffffffffffffffffffffffffffffffffffffffffffffffffffff03821115612b6a57612b69612d6d565b5b828201905092915050565b6000612b8082612c44565b9150612b8b83612c44565b925082612b9b57612b9a612d9c565b5b828204905092915050565b6000612bb182612c44565b9150612bbc83612c44565b925082821015612bcf57612bce612d6d565b5b828203905092915050565b6000612be582612c24565b9050919050565b60008115159050919050565b60007fffffffff0000000000000000000000000000000000000000000000000000000082169050919050565b600073ffffffffffffffffffffffffffffffffffffffff82169050919050565b6000819050919050565b82818337600083830152505050565b60005b83811015612c7b578082015181840152602081019050612c60565b83811115612c8a576000848401525b50505050565b60006002820490506001821680612ca857607f821691505b60208210811415612cbc57612cbb612dcb565b5b50919050565b612ccb82612e6c565b810181811067ffffffffffffffff82111715612cea57612ce9612e29565b5b80604052505050565b6000612cfe82612c44565b91507fffffffffffffffffffffffffffffffffffffffffffffffffffffffffffffffff821415612d3157612d30612d6d565b5b600182019050919050565b6000612d4782612c44565b9150612d5283612c44565b925082612d6257612d61612d9c565b5b828206905092915050565b7f4e487b7100000000000000000000000000000000000000000000000000000000600052601160045260246000fd5b7f4e487b7100000000000000000000000000000000000000000000000000000000600052601260045260246000fd5b7f4e487b7100000000000000000000000000000000000000000000000000000000600052602260045260246000fd5b7f4e487b7100000000000000000000000000000000000000000000000000000000600052603260045260246000fd5b7f4e487b7100000000000000000000000000000000000000000000000000000000600052604160045260246000fd5b600080fd5b600080fd5b600080fd5b600080fd5b6000601f19601f8301169050919050565b7f4574686572206465706f7369746564206d75737420626520657175616c20746f60008201527f207072696365206f66204e465400000000000000000000000000000000000000602082015250565b7f4552433732313a207472616e7366657220746f206e6f6e20455243373231526560008201527f63656976657220696d706c656d656e7465720000000000000000000000000000602082015250565b7f4f776e61626c653a206e6577206f776e657220697320746865207a65726f206160008201527f6464726573730000000000000000000000000000000000000000000000000000602082015250565b7f4552433732313a20746f6b656e20616c7265616479206d696e74656400000000600082015250565b7f4552433732313a207472616e7366657220746f20746865207a65726f2061646460008201527f7265737300000000000000000000000000000000000000000000000000000000602082015250565b7f4552433732313a20617070726f766520746f2063616c6c657200000000000000600082015250565b7f4552433732313a206f70657261746f7220717565727920666f72206e6f6e657860008201527f697374656e7420746f6b656e0000000000000000000000000000000000000000602082015250565b7f4552433732313a20617070726f76652063616c6c6572206973206e6f74206f7760008201527f6e6572206e6f7220617070726f76656420666f7220616c6c0000000000000000602082015250565b7f4552433732313a2062616c616e636520717565727920666f7220746865207a6560008201527f726f206164647265737300000000000000000000000000000000000000000000602082015250565b7f4552433732313a206f776e657220717565727920666f72206e6f6e657869737460008201527f656e7420746f6b656e0000000000000000000000000000000000000000000000602082015250565b7f45524337323155524953746f726167653a2055524920736574206f66206e6f6e60008201527f6578697374656e7420746f6b656e000000000000000000000000000000000000602082015250565b7f43616e2774206d696e7420746f6b656e206d6f7265207468616e20746865207460008201527f6f74616c20737570706c79000000000000000000000000000000000000000000602082015250565b7f4552433732313a206d696e7420746f20746865207a65726f2061646472657373600082015250565b7f45524337323155524953746f726167653a2055524920717565727920666f722060008201527f6e6f6e6578697374656e7420746f6b656e000000000000000000000000000000602082015250565b7f4552433732313a20617070726f76656420717565727920666f72206e6f6e657860008201527f697374656e7420746f6b656e0000000000000000000000000000000000000000602082015250565b7f4f776e61626c653a2063616c6c6572206973206e6f7420746865206f776e6572600082015250565b7f4552433732313a207472616e73666572206f6620746f6b656e2074686174206960008201527f73206e6f74206f776e0000000000000000000000000000000000000000000000602082015250565b7f4552433732314d657461646174613a2055524920717565727920666f72206e6f60008201527f6e6578697374656e7420746f6b656e0000000000000000000000000000000000602082015250565b7f4552433732313a20617070726f76616c20746f2063757272656e74206f776e6560008201527f7200000000000000000000000000000000000000000000000000000000000000602082015250565b7f4552433732313a207472616e736665722063616c6c6572206973206e6f74206f60008201527f776e6572206e6f7220617070726f766564000000000000000000000000000000602082015250565b61341a81612bda565b811461342557600080fd5b50565b61343181612bec565b811461343c57600080fd5b50565b61344881612bf8565b811461345357600080fd5b50565b61345f81612c44565b811461346a57600080fd5b5056fea26469706673582212204eddfc34cff61aa667fb93cfa2bd9710a8e2bf123b65947a1cd18f00e711a63b64736f6c63430008050033",
  "immutableReferences": {},
  "source": "// SPDX-License-Identifier: MIT OR Apache-2.0\r\npragma solidity =0.8.5;\r\n\r\nimport \"@openzeppelin/contracts/utils/Counters.sol\";\r\nimport \"@openzeppelin/contracts/token/ERC721/extensions/ERC721URIStorage.sol\";\r\nimport \"@openzeppelin/contracts/access/Ownable.sol\";\r\n\r\ncontract NFTOriginalsContract is Ownable, ERC721URIStorage {\r\n    using Counters for Counters.Counter;\r\n    Counters.Counter private _tokenIds;\r\n    // address mastercontactAddress;\r\n    uint256 private _totalSupply;\r\n    string private baseURI = \"\";\r\n    uint256 private nftPrice = 0.001 ether;\r\n\r\n    constructor(uint256 totalSupply_) ERC721(\"NFTOriginals\", \"NFTO\") {\r\n        // mastercontactAddress = mastercontactAddress_;\r\n        _totalSupply = totalSupply_;\r\n    }\r\n\r\n    function createNftToken(string memory tokenURI) public payable returns (uint256) {\r\n        require(msg.value == nftPrice,\"Ether deposited must be equal to price of NFT\");\r\n\r\n        _tokenIds.increment();\r\n        uint256 newItemId = _tokenIds.current();\r\n        require(newItemId < _totalSupply, \"Can't mint token more than the total supply\");\r\n\r\n        _mint(msg.sender, newItemId);\r\n        _setTokenURI(newItemId, tokenURI);\r\n        // setApprovalForAll(mastercontactAddress, true);\r\n        address owner = owner();\r\n        payable(owner).transfer(nftPrice);\r\n        return newItemId;\r\n    }\r\n\r\n    function totalSupply() public view returns (uint256) {\r\n        return _totalSupply;\r\n    }\r\n\r\n    // Set baseURI public function to be called by owner of the contract\r\n    function setBaseURI(string memory __baseURI) public onlyOwner {\r\n        baseURI = __baseURI;\r\n    }\r\n\r\n    // internal function to return the baseURI\r\n    function _baseURI() internal view virtual override returns (string memory) {\r\n        return baseURI;\r\n    }\r\n\r\n    /* Returns the price of the nft */\r\n    function getNFTPrice() public view returns (uint256) {\r\n        return nftPrice;\r\n    }\r\n\r\n    function setNFTPrice(uint256 _price) public onlyOwner {\r\n        nftPrice = _price;\r\n    }\r\n}\r\n",
  "sourcePath": "G:/Workspaces_AllinOne/Workspaces_AliTeam/Workspace_NFT_Marketplace/nft-marketplace-backend/nft-marketplace/src/contracts/NFTOriginalsContract.sol",
  "compiler": {
    "name": "solc",
    "version": "0.8.5+commit.a4f2e591.Emscripten.clang"
  },
  "schemaVersion": "3.4.1",
  "updatedAt": "2021-08-22T14:43:59.968Z",
  "networkType": "ethereum",
  "devdoc": {
    "kind": "dev",
    "methods": {
      "approve(address,uint256)": {
        "details": "See {IERC721-approve}."
      },
      "balanceOf(address)": {
        "details": "See {IERC721-balanceOf}."
      },
      "getApproved(uint256)": {
        "details": "See {IERC721-getApproved}."
      },
      "isApprovedForAll(address,address)": {
        "details": "See {IERC721-isApprovedForAll}."
      },
      "name()": {
        "details": "See {IERC721Metadata-name}."
      },
      "owner()": {
        "details": "Returns the address of the current owner."
      },
      "ownerOf(uint256)": {
        "details": "See {IERC721-ownerOf}."
      },
      "renounceOwnership()": {
        "details": "Leaves the contract without owner. It will not be possible to call `onlyOwner` functions anymore. Can only be called by the current owner. NOTE: Renouncing ownership will leave the contract without an owner, thereby removing any functionality that is only available to the owner."
      },
      "safeTransferFrom(address,address,uint256)": {
        "details": "See {IERC721-safeTransferFrom}."
      },
      "safeTransferFrom(address,address,uint256,bytes)": {
        "details": "See {IERC721-safeTransferFrom}."
      },
      "setApprovalForAll(address,bool)": {
        "details": "See {IERC721-setApprovalForAll}."
      },
      "supportsInterface(bytes4)": {
        "details": "See {IERC165-supportsInterface}."
      },
      "symbol()": {
        "details": "See {IERC721Metadata-symbol}."
      },
      "tokenURI(uint256)": {
        "details": "See {IERC721Metadata-tokenURI}."
      },
      "transferFrom(address,address,uint256)": {
        "details": "See {IERC721-transferFrom}."
      },
      "transferOwnership(address)": {
        "details": "Transfers ownership of the contract to a new account (`newOwner`). Can only be called by the current owner."
      }
    },
    "version": 1
  },
  "userdoc": {
    "kind": "user",
    "methods": {},
    "version": 1
  }
}